:020000040000FA
:100000000C94E3010C9414020C9414020C9414024A
:100010000C9414020C9414020C9414020C94140208
:100020000C9414020C9414020C9414020C941402F8
:100030000C9414020C9414020C9414020C941402E8
:100040000C9414020C9414020C9414020C941402D8
:100050000C9414020C9414020C9414020C940F0AC5
:100060000C9414020C94D9090C94AF090C9414024A
:100070000C9414020C9414020C9414020C941402A8
:100080000C9414020C9414020C9414020C94140298
:100090000C9414020C9414020C9414020C94140288
:1000A0000C9414020C9414020C9414020C94140278
:1000B0000C9414020C9414020C9414020C94140268
:1000C0000C9414020C9414020C9414020C94140258
:1000D0000C9414020C9414020C9414020C94140248
:1000E0000C9414020C94B1030C9492030C94590ACE
:1000F0000C949D030C9496030C94AD090C94A303EB
:100100000C94C8030C94BB030C9474020C94CD03A0
:100110000C94C3030C94B5030C9419030C948E0334
:100120000C94C9030C94AD030C94A7030C9488039E
:100130000C9443020C94BF030C94D6040C94AC02B0
:100140000C949A030C9452020C9466020C941602BE
:100150004E414E494E495459494E46CDCCCC3D0AAC
:10016000D7233C17B7D13877CC2B329595E6241F8F
:10017000B14F0A000020410000C84200401C462048
:10018000BCBE4CCA1B0E5AAEC59D742C4578697412
:100190002043616C6962726174696F6E204D6F6497
:1001A000653C3C3C003E3E3E43616C69627261745A
:1001B000696F6E204661696C6564003E3E3E436136
:1001C0006C6962726174696F6E20537563636573E5
:1001D0007366756C2C4B2056616C75652053617687
:1001E0006564003E3E3E436F6E6669726D204661F7
:1001F000696C65642C54727920416761696E3C3C7E
:100200003C002C2053656E64204558495420746F7F
:10021000205361766520616E6420457869743C3CAA
:100220003C003E3E3E436F6E6672696D20537563BF
:100230006365737366756C2C4B3A003E3E3E506CA2
:100240006561736520707574207468652070726FC5
:10025000626520696E746F20746865207374616EC6
:10026000646172642062756666657220736F6C7576
:1002700074696F6E3C3C3C003E3E3E456E74657258
:100280002043616C6962726174696F6E204D6F64A6
:10029000653C3C3C00436F6D6D616E64204572723D
:1002A0006F720000002100240027002A002D00307A
:1002B00000330001010000040107010A01000022CF
:1002C00000250028002B002E003100340002010020
:1002D00000050108010B0100002000230026002971
:1002E000002C002F0032000001000003010601096C
:1002F0000105050505070508080808020202020AAB
:100300000A080804040404010101010101010103B8
:1003100003030303030303040707070C0C0C0C0C73
:100320000C0C0C0202020206060606060606060B66
:100330000B0B0B0B0B0B0B010210202008081020DD
:100340004010204080020102010804020101020461
:100350000810204080804020100804020180040220
:100360000180402010080402010804020101020477
:100370000810204080010204081020408000000A7C
:100380000B02090C0D0E0807030401000000000019
:10039000000000000000000000000000000000005D
:1003A000000000000000000000121110000000001A
:1003B000000000000000000000000000000000003D
:1003C00000000000590A11241FBECFEFD1E2DEBFAA
:1003D000CDBF00E00CBF23E0A0E4B2E001C01D925D
:1003E000AB3DB207E1F712E0A0E0B2E0ECE4F8E2E6
:1003F00000E00BBF02C007900D92A034B107D9F7FF
:1004000011E0C3EED1E000E006C021970109802F82
:10041000FE010E94DD12C23ED10780E00807A9F765
:100420000E94260B0C9424140C940000AF92BF92EF
:10043000CF92DF92EF92FF920F931F93CF93DF93B0
:100440006C017B018B01040F151FEB015E01AE18DF
:10045000BF08C017D10759F06991D601ED91FC9101
:100460000190F081E02DC6011995892B79F7C5011E
:10047000DF91CF911F910F91FF90EF90DF90CF9080
:10048000BF90AF900895FC01538D448D252F30E02F
:10049000842F90E0821B930B541710F0CF96089591
:1004A00001970895FC01918D828D981761F0A28DBE
:1004B000AE0FBF2FB11D5D968C91928D9F5F9F7384
:1004C000928F90E008958FEF9FEF0895FC01918D3A
:1004D000828D981731F0828DE80FF11D858D90E0A7
:1004E00008958FEF9FEF0895FC01918D228D892F44
:1004F00090E0805C9F4F821B91098F73992708952C
:1005000089E592E00E94740221E0892B09F420E041
:10051000822F0895FC01A48DA80FB92FB11DA35AF5
:10052000BF4F2C91848D90E001968F739927848F13
:10053000A689B7892C93A089B1898C918370806436
:100540008C93938D848D981306C00288F389E02DD7
:1005500080818F7D80830895EF92FF920F931F9388
:10056000CF93DF93EC0181E0888F9B8D8C8D981366
:100570001AC0E889F989808185FF15C09FB7F89472
:10058000EE89FF896083E889F989808183708064BE
:1005900080839FBF81E090E0DF91CF911F910F9109
:1005A000FF90EF900895F62E0B8D10E00F5F1F4F18
:1005B0000F731127E02E8C8D8E110CC00FB607FC27
:1005C000FACFE889F989808185FFF5CFCE010E94B5
:1005D0008A02F1CFEB8DEC0FFD2FF11DE35AFF4F97
:1005E000F0829FB7F8940B8FEA89FB898081806243
:1005F000CFCF682F89E592E00C94AC020F931F9344
:10060000CF93DF938C01D0E0C0E0F801EC0FFD1F29
:100610006491662341F089E592E00E94AC02892B47
:1006200011F02196F2CFCE01DF91CF911F910F9162
:100630000895CF93DF93EC01888D8823B9F0AA89C0
:10064000BB89E889F9898C9185FD03C0808186FD8D
:100650000DC00FB607FCF7CF8C9185FFF2CF8081DC
:1006600085FFEDCFCE010E948A02E9CFDF91CF91C5
:10067000089580E090E0892B29F00E94800281118A
:100680000E94000080E090E0892B49F080E090E03B
:10069000892B29F00E94000081110E94000080E057
:1006A00090E0892B49F080E090E0892B29F00E94AE
:1006B000000081110E94000080E090E0892B49F049
:1006C00080E090E0892B29F00E94000081110C94B9
:1006D000000008958150823108F05AC0E82FF0E000
:1006E0008827EA58FC4F8F4F0C94DD1296039A032B
:1006F00088038E039203C8039D03A303A703AD03DE
:10070000B103B503BB03BF03C803C303C903CD03D0
:10071000809180008F778093800008958091800081
:100720008F7DF9CF80918000877FF5CF84B58F775B
:1007300084BD089584B58F7DFBCF8091B0008F7705
:100740008093B00008958091B0008F7DF9CF8091A3
:1007500090008F77809390000895809190008F7D16
:10076000F9CF80919000877FF5CF8091A0008F779F
:100770008093A00008958091A0008F7DF9CF809193
:10078000A000877FF5CF809120018F778093200193
:100790000895809120018F7DF9CF80912001877F7E
:1007A000F5CFCF93DF93282F30E0F901E358FC4FCA
:1007B0008491F901E95CFC4FD491F901EF50FD4FB0
:1007C000C491CC23A1F081110E946A03EC2FF0E0C8
:1007D000EE0FFF1FE952FD4FA591B491EC91ED236F
:1007E00081E090E009F480E0DF91CF91089580E00E
:1007F00090E0FACF1F93CF93DF93282F30E0F901D9
:10080000E358FC4F8491F901E95CFC4FD491F90164
:10081000EF50FD4FC491CC23A9F0162F81110E94F7
:100820006A03EC2FF0E0EE0FFF1FE354FD4FA5919C
:10083000B4918FB7F894EC91111108C0D095DE23D4
:10084000DC938FBFDF91CF911F910895DE2BF8CFFE
:10085000CF93DF9390E0FC01E95CFC4F24918F5033
:100860009D4FFC0184918823C9F090E0880F991F67
:10087000FC01ED55FD4FA591B491FC01E354FD4FF2
:10088000C591D49161110DC09FB7F8948C912095BA
:1008900082238C938881282328839FBFDF91CF9167
:1008A0000895623051F49FB7F8943C91822F80955F
:1008B00083238C93E8812E2BEFCF8FB7F894EC91A4
:1008C0002E2B2C938FBFEACF3FB7F8948091530221
:1008D00090915402A0915502B091560226B5A89B62
:1008E00005C02F3F19F00196A11DB11D3FBFBA2FC2
:1008F000A92F982F8827BC01CD01620F711D811D82
:10090000911D42E0660F771F881F991F4A95D1F706
:1009100008950C9464042FB7F89460914F0270917D
:10092000500280915102909152022FBF08950F936F
:100930001F930E948B046093610270936202809304
:1009400063029093640289E592E00E94660297FF39
:100950001DC00E948B0400916102109162022091DF
:10096000630230916402601B710B820B930B009148
:100970005D0210915E0220915F023091600260176B
:10098000710782079307F8F28FEF9FEF1F910F9186
:100990000895CF93DF93EC0160E08A810E94FA030F
:1009A00061E08A81DF91CF910C94FA030895FF9260
:1009B0000F931F93CF93DF93F82E062FC7E0D0E05D
:1009C00010E061E0802F0E94FA038F2D0E94D10376
:1009D0000C2E01C0880F0A94EAF7182B60E0802FD4
:1009E0000E94FA03219768F7812FDF91CF911F9121
:1009F0000F91FF900895CF92DF92EF92FF920F93A5
:100A00001F93CF93DF93EC018B810E94D103892B3D
:100A100019F00E948904F8CFEFB6F8946A818B81AF
:100A20000E94D704082F6A818B810E94D704182F57
:100A30006A818B810E94D704F82ED12CC12C8C8125
:100A40008C151D0469F060F061E08A810E94FA0350
:100A500060E08A810E94FA038FEFC81AD80AEFCFAC
:100A6000EFBE612F70E090E080E0982F872F762F07
:100A70006627802B6F29D02FDD0FDD0B0D2F10E0A7
:100A800030E020E0302F222711270027602B712B28
:100A9000822B932BDF91CF911F910F91FF90EF90BD
:100AA000DF90CF900895CF92DF92EF92FF920F9355
:100AB0001F93CF938C01CAE0C12CD12C7601C801C1
:100AC0000E94FB04C60ED71EE81EF91E0E94890470
:100AD000C150A9F7C701B6012AE030E040E050E07C
:100AE0000E94BE12CA01B9010E942D100E945C1220
:100AF000F8016583768387839087CF911F910F914B
:100B0000FF90EF90DF90CF900895CF92DF92EF9219
:100B1000FF920F931F93CF93DF93EC011AE0C12C48
:100B2000D12C7601CE010E94FB04C60ED71EE81E12
:100B3000F91E0E9489041150A9F7C701B6012AE0E5
:100B400030E040E050E00E94BE128D819E81AF8176
:100B5000B88579018A01E81AF90A0A0B1B0BC8014A
:100B6000B7010E942D1029853A854B855C850E942E
:100B7000EA11DF91CF911F910F91FF90EF90DF90DD
:100B8000CF900895FC0101900020E9F73197AF0163
:100B9000481B590BBC0189E592E00C9416028F9218
:100BA0009F92AF92BF920F931F93CF93DF93CDB7D6
:100BB000DEB7A1970FB6F894DEBF0FBECDBF19A266
:100BC000423008F44AE08E010F5D1F4F842E912CB5
:100BD000B12CA12CA50194010E949C12E62FB90111
:100BE000CA01EA30F4F4E05DD801EE938D01232BC5
:100BF000242B252B79F790E080E0109719F0CD0198
:100C00000E94C205A1960FB6F894DEBF0FBECDBFFD
:100C1000DF91CF911F910F91BF90AF909F908F90D8
:100C20000895E95CE1CF4F925F926F927F928F922D
:100C30009F92AF92BF92CF92DF92EF92FF920F936B
:100C40001F93CF936B017C01742EAC019B010E941A
:100C50009712882399F080E292E0CF911F910F9133
:100C6000FF90EF90DF90CF90BF90AF909F908F90CC
:100C70007F906F905F904F900C94C2054601570192
:100C8000E894B7F82FEF3FEF4FE75FE7C501B401F6
:100C90000E94971281110DC02FEF3FEF4FE75FE7E2
:100CA000C501B4010E94261018161CF484E292E0DB
:100CB000D4CF2FEF3FEF4FE75FE4C701B6010E94AB
:100CC000921218161CF488E292E0C7CF2FEF3FEF84
:100CD0004FE75FECC701B6010E94261087FDF3CFF6
:100CE00020E030E0A901C701B6010E94261010E003
:100CF00000E087FF08C08DE20E94F9028C01F7FA3C
:100D0000F094F7F8F094C0E060E070E080E09FE3DA
:100D10007C1641F020E030E040E251E40E94EA110C
:100D2000CF5FF6CFA70196010E947E112B013C01F7
:100D30000E9463124B015C014AE00E94CF057C01D6
:100D4000E00EF11ECC23B1F1C501B4010E942B10BD
:100D50009B01AC01C301B2010E947D114B015C01FA
:100D60008EE20E94F902E80EF91EC15018F120E04F
:100D700030E040E251E4C501B4010E948C102B0127
:100D80003C010E9463124B01B12CA12C4AE0C50129
:100D9000B4010E94CF05E80EF91EC501B4010E94FE
:100DA0002B109B01AC01C301B2010E947D114B01CC
:100DB0005C01DBCFC701CF911F910F91FF90EF90A6
:100DC000DF90CF90BF90AF909F908F907F906F906B
:100DD0005F904F9008958CE292E00C94C205CF93FF
:100DE000DF930E94FE02EC010E94EB068C0F9D1F18
:100DF000DF91CF9108950C944D11AF92BF92CF9295
:100E0000DF92EF92FF920F931F93CF93DF93EC014A
:100E100060E088810E9428046E0181E2C80ED11C26
:100E20005601F12CE12C0E851F85E4E0EE16F1044D
:100E300061F0C701800F911F0E94FB06F5018193AD
:100E40005F01FFEFEF1AFF0AEECFC8010E94FB0619
:100E50008F3F51F5C80101960E94FB068F3F21F597
:100E6000C80102960E94FB068F3FF1F4C801039669
:100E70000E94FB068F3FC1F480E090E0A0E8BFE352
:100E800089A39AA3ABA3BCA310E000E0F601619193
:100E90006F018E859F85800F911F0E9455110F5FF6
:100EA0001F4F0430110591F7DF91CF911F910F91E2
:100EB000FF90EF90DF90CF90BF90AF9008954F924A
:100EC0005F926F927F928F929F92AF92BF92CF92DA
:100ED000DF92EF92FF921F93CF93DF93EC01888113
:100EE000863308F0865320917B00982F9870277FD7
:100EF000922B90937B008770806480937C0080911C
:100F00007A00806480937A0080917A0086FDFCCF1D
:100F10008091780060917900762F682F072E000C61
:100F2000880B990B0E942D106DA37EA38FA398A709
:100F30002E813F81488559850E94EA112A813B8193
:100F40004C815D810E948C106B017C01C9A6DAA6E0
:100F5000EBA6FCA625E83BE645E053E40E948C1096
:100F6000A70196010E948C10A70196010E948C1087
:100F70004B015C0129E23CED4FE753E4C701B601A8
:100F80000E948C10A70196010E948C109B01AC015D
:100F9000C501B4010E947D114B015C0126EF38E5CB
:100FA00046E554E4C701B6010E948C109B01AC01D8
:100FB000C501B4010E947E1129A13AA14BA15CA1F7
:100FC0000E948C106B017C01CDA6DEA6EFA6F8AACC
:100FD00020E030E048EC51E46A857B858C859D8576
:100FE0000E947D112AE037ED43EA5CE30E948C10F9
:100FF00020E030E040E85FE30E947E119B01AC01FD
:10100000C701B6010E94EA1169AB7AAB8BAB9CAB0E
:1010100020E030E040E05FE30E948C106DAB7EABDF
:101020008FAB98AF8091440281110DC00E948B0458
:101030006093400270934102809342029093430276
:1010400081E0809344027E0120E1E20EF11C10E178
:1010500089E592E00E947402181619060CF054C03B
:101060000E948B048090400290904102A090420226
:10107000B0904302681979098A099B09653F71405C
:101080008105910530F018A2F701212F11922A95C0
:10109000E9F70E948B0460934002709341028093B1
:1010A00042029093430289E592E00E9452028A3004
:1010B00019F098A19F30C1F518A27E0180E1E80ED9
:1010C000F11CC7010E941C106FE272E0C7010E9470
:1010D0000A14892B09F076C065E372E0C7010E940B
:1010E0000A14892B09F03EC06AE372E0C7010E942E
:1010F0000A14009701F170E060E004960E949D0ED2
:1011000020914D0221117EC0DF91CF911F91FF9060
:10111000EF90DF90CF90BF90AF909F908F907F9097
:101120006F905F904F900895FE01E90FF11D808B45
:101130009F5F98A38DCF80914D02882329F385E985
:1011400092E0DF91CF911F91FF90EF90DF90CF90D1
:10115000BF90AF909F908F907F906F905F904F90D7
:101160000C94EF0680914D02882371F20E94EB06E9
:1011700080914C02882309F4EDC06E01E1E2CE0EAD
:10118000D11CF12CE12CF60161916F018E859F85B8
:101190008E0D9F1D0E945511FFEFEF1AFF0A24E0EC
:1011A000E216F10481F78BEB91E00E94FE028BE8DE
:1011B00091E00E94EF060E94EB0610924C02109202
:1011C0004D02A2CF81E080934D0210924C020E940A
:1011D000EB0688E792E00E94EF068BE392E00E9424
:1011E000EF06DF91CF911F91FF90EF90DF90CF90AE
:1011F000BF90AF909F908F907F906F905F904F9037
:101200000C94EB069B01AC010E947E116B017C01EA
:1012100020E030E048EC51E46A857B858C859D8533
:101220000E947D112AE037ED43EA5CE30E948C10B6
:1012300020E030E040E85FE30E947E11A7019601C4
:101240000E948C104B015C0120E030E0A9010E945B
:10125000921218160CF073C020E030E04AEF54E40C
:10126000C501B4010E94261087FF69C0C9A4DAA491
:10127000EBA4FCA425E83BE645E053E4C701B60136
:101280000E948C10A70196010E948C10A701960164
:101290000E948C102B013C0129E23CED4FE753E406
:1012A000C701B6010E948C10A70196010E948C1004
:1012B0009B01AC01C301B2010E947D112B013C01D5
:1012C00026EF38E546E554E4C701B6010E948C10CC
:1012D0009B01AC01C301B2010E947E119B01AC01D4
:1012E000C501B4010E94EA116B017C0120E030E0ED
:1012F00040E85EE30E94921218160CF520E030E000
:1013000040E850E4C701B6010E94261087FF17C0CD
:101310000E94EB0682E292E00E94FE0242E0C701D8
:10132000B6010E94130682E092E00E94EF06C9A275
:10133000DAA2EBA2FCA281E080934C02E5CE0E94EF
:10134000EB0683EE91E00E94EF060E94EB061092FE
:101350004C02DACE85EA91E028CF0C9481131F92DB
:101360000F920FB60F9211240BB60F922F933F934B
:101370004F935F936F937F938F939F93AF93BF939D
:10138000EF93FF9389E592E00E948A02FF91EF912B
:10139000BF91AF919F918F917F916F915F914F918D
:1013A0003F912F910F900BBE0F900FBE0F901F908B
:1013B00018951F920F920FB60F9211240BB60F9231
:1013C0002F938F939F93EF93FF93E0916902F09196
:1013D0006A028081E0916F02F091700282FD1DC06F
:1013E0009081809172028F5F8F73209173028217B8
:1013F00041F0E0917202F0E0E75AFD4F958F809343
:101400007202FF91EF919F918F912F910F900BBEE0
:101410000F900FBE0F901F9018958081F2CF1F92F2
:101420000F920FB60F9211242F933F938F939F9398
:10143000AF93BF9380914F0290915002A0915102BF
:10144000B091520230914E0223E0230F2D3758F510
:101450000196A11DB11D20934E0280934F029093DF
:101460005002A0935102B093520280915302909186
:101470005402A0915502B09156020196A11DB11DD2
:101480008093530290935402A0935502B093560256
:10149000BF91AF919F918F913F912F910F900FBE70
:1014A0000F901F90189526E8230F0296A11DB11DDD
:1014B000D2CF8F929F92AF92BF92CF92DF92EF9254
:1014C000FF92CF93DF93E9E5F2E01382128288EE78
:1014D00093E0A0E0B0E084839583A683B7838AE09D
:1014E00092E09183808385EC90E09587848784ECFB
:1014F00090E09787868780EC90E0918B808B81ECE1
:1015000090E0938B828B82EC90E0958B848B86ECC1
:1015100090E0978B868B118E128E138E148EE8ECD2
:10152000F3E02CE132E031832083158216821782AA
:10153000108680E090E0A0E8BFE381879287A387D0
:10154000B487EBEBF3E03183208315821682178298
:10155000108681879287A387B487EEEAF3E0318310
:101560002083158216821782108681879287A3872F
:10157000B487E1EAF3E03183208315821682178273
:10158000108681879287A387B487E8E6F3E0C7E3F4
:10159000D0E0D183C083812C912C28ECA22E21E4B1
:1015A000B22E82869386A486B586C12CD12C30EAD1
:1015B000E32E30E4F32EC282D382E482F58240E04F
:1015C00050E060E874E4468357836087718728E0C1
:1015D00030E03787268781A392A3A3A3B4A3EFE2C9
:1015E000F3E0D183C08382869386A486B586C282C7
:1015F000D382E482F5824683578360877187378779
:10160000268781A392A3A3A3B4A3E6EFF2E0D1833C
:10161000C08382869386A486B586C282D382E48202
:10162000F58246835783608771873787268781A332
:1016300092A3A3A3B4A3DF91CF91FF90EF90DF908B
:10164000CF90BF90AF909F908F900895CF93DF93EE
:10165000CDB7DEB76E970FB6F894DEBF0FBECDBF25
:10166000789484B5826084BD84B5816084BD85B57D
:10167000826085BD85B5816085BD80916E00816089
:1016800080936E001092810080918100826080932F
:101690008100809181008160809381008091800031
:1016A0008160809380008091B10084608093B1005C
:1016B0008091B00081608093B00080919100826041
:1016C000809391008091910081608093910080913E
:1016D00090008160809390008091A100826080934F
:1016E000A1008091A10081608093A1008091A00061
:1016F00081608093A000809121018260809321010C
:10170000809121018160809321018091200181607D
:101710008093200180917A00846080937A00809188
:101720007A00826080937A0080917A008160809351
:101730007A0080917A00806880937A001092C100CC
:1017400060E086E30E94280460E087E30E942804AA
:1017500060E088E30E94280462E089E20E94280495
:1017600062E08BE20E94280462E082E10E94280489
:1017700060E08AE30E94FA0360E08BE30E94FA03D0
:1017800060E084E10E94FA0360E085E10E94FA03D0
:1017900061E08AE30E94280461E08BE30E94280450
:1017A00061E084E10E94280461E085E10E94280450
:1017B00060E083E10E94FA0360E086E10E94FA03A0
:1017C00060E087E10E94FA0360E084E00E94FA038F
:1017D00060E085E00E94FA0360E086E00E94FA0380
:1017E00061E083E10E94280461E086E10E94280410
:1017F00061E087E10E94280461E084E00E942804FF
:1018000061E085E00E94280461E086E00E942804EF
:1018100060E087E00E94FA0360E088E00E94FA033B
:1018200060E089E00E94FA0361E087E00E942804FA
:1018300061E088E00E94280461E089E00E942804B9
:1018400083E28093CA0381E28093CB0361E083E269
:101850000E94280460E08091CB030E94280411E0DC
:101860001093CC038FE18093BD038DE18093BE0381
:1018700061E08FE10E94280460E08091BE030E9435
:1018800028041093BF038BE18093B00389E1809318
:10189000B10361E08BE10E94280460E08091B10314
:1018A0000E9428041093B20383E1C82E8CE0D82E46
:1018B00085EFE82E83E4F82EC092D103D092D203B4
:1018C000E092D303F092D40388EC93E00E94530596
:1018D00088EC93E00E94C904C092C403D092C5036F
:1018E000E092C603F092C7038BEB93E00E9453058E
:1018F0008BEB93E00E94C90481E69CE7A7EEB3E47A
:101900008093B7039093B803A093B903B093BA033D
:101910008EEA93E00E9453058EEA93E00E94C90488
:1019200086E390E09093690380936803812C912C67
:1019300090EAA92E90E4B92E80926A0390926B03EC
:10194000A0926C03B0926D03C12CD12C20E8E22E42
:1019500024E4F22EC0926E03D0926F03E0927003E3
:10196000F092710381E090E0909377038093760387
:1019700088E693E00E94FD0687E390E090933003B1
:1019800080932F038092310390923203A09233030D
:10199000B0923403C0923503D0923603E0923703FD
:1019A000F092380388E090E090933E0380933D03EB
:1019B0008FE293E00E94FD0688E390E09093F702A7
:1019C0008093F6028092F8029092F902A092FA02B5
:1019D000B092FB02C092FC02D092FD02E092FE02A5
:1019E000F092FF028FE090E0909305038093040350
:1019F00086EF92E00E94FD06E0916902F0916A0292
:101A000082E08083E0916502F09166021082E091AD
:101A10006702F091680280E1808310927102E09188
:101A20006D02F0916E0286E08083E0916B02F0918E
:101A30006C02808180618083E0916B02F0916C0286
:101A4000808188608083E0916B02F0916C028081DC
:101A500080688083E0916B02F0916C0280818F7DC1
:101A6000808360E08091CA030E94FA0360E0809165
:101A7000BD030E94FA0360E08091B0030E94FA0364
:101A8000812C912C38ECA32E31E4B32E89E592E021
:101A90000E947402892B09F053C00E949704FC0134
:101AA00097FD4AC08D32910519F0C0970A97E8F565
:101AB000C12CD12C760110E0E130F105D1F0ED32EE
:101AC000F105C1F1CF01C0970A9798F4AAE0B0E000
:101AD000A70196010E9463116F01FF0FEE08FF0836
:101AE000C60ED71EE81EF91E80E3C81AD108E10809
:101AF000F10889E592E00E9452020E949704FC01DD
:101B0000C0970A97C8F2E130F105B1F2112341F014
:101B1000F094E094D094C094C11CD11CE11CF11C41
:101B2000D0925802C0925702B1CF89E592E00E944C
:101B30005202B3CF11E0DDCFC12CD12C7601F0CF12
:101B400080915702909158028230910509F47FC02C
:101B50008330910509F4B9C0019709F067C08092FC
:101B6000720390927303A0927403B092750388E697
:101B700093E00E945F0780919D0390919E03A09146
:101B80009F03B091A0038D879E87AF87B88B80920B
:101B9000390390923A03A0923B03B0923C038FE248
:101BA00093E00E945F078091640390916503A09188
:101BB0006603B0916703898B9A8BAB8BBC8B809249
:101BC000000390920103A0920203B092030386EFF8
:101BD00092E00E945F0780912B0390912C03A091CB
:101BE0002D03B0912E038D8B9E8BAF8BB88F8E0102
:101BF000035F1F4FF12CE12CF801619171918191EC
:101C000091918F0142E00E941306F2E0EF16F10479
:101C100019F08CE20E94F9028FEFE81AF80AE3E06B
:101C2000EE16F10449F78AE00E94F9021092580278
:101C30001092570289E592E00E9474021816190664
:101C40000CF078C089E592E00E945202F3CF89E25D
:101C50000E94D1039A8F898F8BE20E94D1039C8FBF
:101C60008B8F82E10E94D1039E8F8D8F6E01F9E1EF
:101C7000CF0ED11CF12CE12CF601419051906F0157
:101C8000052C000C660877084AE0C301B20177FE14
:101C90000BC08DE20E94F90266277727CB016419F9
:101CA0007509860997094AE00E94CF05F2E0EF1610
:101CB000F10419F08CE20E94F9028FEFE81AF80A99
:101CC000E3E0EE16F104C1F6AECF88EC93E00E949B
:101CD000850569837A838B839C838BEB93E00E94D9
:101CE00085056D837E838F8398878EEA93E00E94BB
:101CF000850569877A878B879C878E010F5F1F4FC9
:101D0000F12CE12CF80161917191819191918F01F8
:101D100042E00E941306F2E0EF16F10419F08CE2A3
:101D20000E94F9028FEFE81AF80AE3E0EE16F104D8
:101D300049F779CF0E943903A9CE8F929F92AF9233
:101D4000BF92CF92DF92EF92FF920F931F93CF93A8
:101D5000DF935C017B016115710519F0DB018D9347
:101D60009C9385010F5F1F4FF501D0818D2F90E06F
:101D70000E94FB0F6C01892BB9F5DD32B9F50F5FBD
:101D80001F4FD5011196DC91C1E05801F1E0AF1A67
:101D9000B10843E050E068E571E0C5010E9404101D
:101DA000892B69F5680182E0C80ED11C45E050E03E
:101DB00063E571E0C6010E940410892B21F46801DB
:101DC00097E0C90ED11CE114F10419F0D701CD92AE
:101DD000DC9260E070E080E89FEFC111FFC060E03E
:101DE00070E080E89FE7FAC05801BBCFDB3229F4EE
:101DF00085010E5F1F4FF501D181C0E0C6CF43E0E2
:101E000050E060E571E0C5010E940410892BE9F003
:101E1000F80110E000E020E030E0A9015F01B0ED42
:101E20008B2E8D0E89E08815C8F19C2E689491F850
:101E30008C2F8870C2FF16C0811102C00F5F1F4F28
:101E40003196D501DC91C92DE9CFE114F10429F0D7
:101E50000E5F1F4FF7011183008360E070E080EC9C
:101E60009FE7BCC0882311F001501109A5E0B0E044
:101E70000E9463119B01AC01220F331F441F551FA9
:101E8000280D311D411D511D283999E93907490790
:101E900099E15907A8F2C6609C2ED2CFAEEF8A1204
:101EA00006C0C3FD3CC09C2E689493F8C9CFDF7D6B
:101EB000D534A9F580818D3239F4C061DF011296E5
:101EC000818162E070E006C0DF018B32C1F31196C0
:101ED00061E070E080535D01A61AB70A8A30F8F419
:101EE000E0E8CE16ECE0DE065CF4B601660F771F84
:101EF000660F771FC60ED71ECC0CDD1CC80ED11C7A
:101F00005D01FFEFAF1ABF0A8C9180538A30A8F1B0
:101F1000C4FF03C0D194C194D1080C0D1D1DC1FF95
:101F200009C0E114F10431F081E0A81AB108D70129
:101F3000AD92BC92CA01B9010E942B10C370C3308C
:101F400009F490584B015C0120E030E0A9010E94A7
:101F50002610882309F440C0C7E8D1E017FF05C068
:101F6000119501951109CFE6D1E06E01B8E1CB1AC8
:101F7000D10880E2E82EF12C0FC0D501B1CFFE01CF
:101F800025913591459154910E191F09C501B40150
:101F90000E948C104B015C01D501C4010E151F0578
:101FA00074F72497F594E794CC16DD06A9F78A2FE9
:101FB000880F8B2F881F8F3F49F020E030E0A90168
:101FC000C501B4010E942610811106C082E290E092
:101FD0009093D6038093D503C501B401DF91CF91CF
:101FE0001F910F91FF90EF90DF90CF90BF90AF9037
:101FF0009F908F90089591110C94F910803219F0F0
:1020000089508550C8F70895FB01DC0141505040CC
:1020100088F08D9181341CF08B350CF4805E6591D5
:1020200061341CF06B350CF4605E861B611171F33A
:10203000990B0895881BFCCFDC016C9161566A31C5
:1020400008F0605E6F5B6D93C1F708950E946810A1
:1020500008F481E00895E89409C097FB3EF4909558
:102060008095709561957F4F8F4F9F4F9923A9F071
:10207000F92F96E9BB279395F69587957795679500
:10208000B795F111F8CFFAF4BB0F11F460FF1BC044
:102090006F5F7F4F8F4F9F4F16C0882311F096E9D7
:1020A00011C0772321F09EE8872F762F05C0662385
:1020B00071F096E8862F70E060E02AF09A95660F3E
:1020C000771F881FDAF7880F9695879597F90895F7
:1020D000990F0008550FAA0BE0E8FEEF1616170639
:1020E000E807F907C0F012161306E407F50798F0A1
:1020F000621B730B840B950B39F40A2661F0232BBA
:10210000242B252B21F408950A2609F4A140A69535
:102110008FEF811D811D08950E949F100C94131153
:102120000E94051138F00E940C1120F0952311F047
:102130000C94FC100C94021111240C9447110E9471
:10214000241170F3959FC1F3950F50E0551F629FC6
:10215000F001729FBB27F00DB11D639FAA27F00D00
:10216000B11DAA1F649F6627B00DA11D661F829F27
:102170002227B00DA11D621F739FB00DA11D621F0C
:10218000839FA00D611D221F749F3327A00D611D29
:10219000231F849F600D211D822F762F6A2F11240B
:1021A0009F5750409AF0F1F088234AF0EE0FFF1F3E
:1021B000BB1F661F771F881F91505040A9F79E3F95
:1021C000510580F00C94FC100C9447115F3FE4F330
:1021D000983ED4F3869577956795B795F795E795EB
:1021E0009F5FC1F7FE2B880F911D9695879597F9F4
:1021F000089599278827089597F99F6780E870E0E8
:1022000060E008959FEF80EC089500240A9416166C
:10221000170618060906089500240A9412161306D4
:10222000140605060895092E0394000C11F4882362
:1022300052F0BB0F40F4BF2B11F460FF04C06F5F7E
:102240007F4F8F4F9F4F089557FD9058440F551F54
:1022500059F05F3F71F04795880F97FB991F61F028
:102260009F3F79F087950895121613061406551F9F
:10227000F2CF4695F1DF08C0161617061806991F0B
:10228000F1CF86957105610508940895E894BB2700
:1022900066277727CB0197F90895F999FECF92BD6C
:1022A00081BDF89A992780B50895262FF999FECF18
:1022B0001FBA92BD81BD20BD0FB6F894FA9AF99A63
:1022C0000FBE019608950E946E11A59F900DB49FB8
:1022D000900DA49F800D911D11240895A29FB0011F
:1022E000B39FC001A39F700D811D1124911DB29F4A
:1022F000700D811D1124911D08955058BB27AA27E8
:102300000E9495110C9413110E94051138F00E943F
:102310000C1120F039F49F3F19F426F40C940211AB
:102320000EF4E095E7FB0C94FC10E92F0E942411B9
:1023300058F3BA17620773078407950720F079F4FA
:10234000A6F50C9446110EF4E0950B2EBA2FA02D95
:102350000B01B90190010C01CA01A0011124FF2752
:10236000591B99F0593F50F4503E68F11A16F0404D
:10237000A22F232F342F4427585FF3CF469537954C
:102380002795A795F0405395C9F77EF41F16BA0B11
:10239000620B730B840BBAF09150A1F0FF0FBB1FBF
:1023A000661F771F881FC2F70EC0BA0F621F731F08
:1023B000841F48F4879577956795B795F7959E3F65
:1023C00008F0B0CF9395880F08F09927EE0F9795F6
:1023D000879508950E94FE110C9413110E940C1110
:1023E00058F00E94051140F029F45F3F29F00C9449
:1023F000FC1051110C9447110C9402110E942411ED
:1024000068F39923B1F3552391F3951B550BBB2723
:10241000AA2762177307840738F09F5F5F4F220F68
:10242000331F441FAA1FA9F335D00E2E3AF0E0E85F
:1024300032D091505040E695001CCAF72BD0FE2FA9
:1024400029D0660F771F881FBB1F2617370748073D
:10245000AB07B0E809F0BB0B802DBF01FF279358F5
:102460005F4F3AF09E3F510578F00C94FC100C94AD
:1024700047115F3FE4F3983ED4F3869577956795CF
:10248000B795F7959F5FC9F7880F911D969587952A
:1024900097F90895E1E0660F771F881FBB1F621749
:1024A00073078407BA0720F0621B730B840BBA0B07
:1024B000EE1F88F7E09508950E9463126894B111A9
:1024C0000C94471108950E942C1188F09F5798F0A2
:1024D000B92F9927B751B0F0E1F0660F771F881F29
:1024E000991F1AF0BA95C9F714C0B13091F00E9443
:1024F0004611B1E008950C944611672F782F882774
:10250000B85F39F0B93FCCF3869577956795B39569
:10251000D9F73EF490958095709561957F4F8F4FD8
:102520009F4F08950E94681008F48FEF08950E944D
:102530006810880B990B0895A1E21A2EAA1BBB1BE9
:10254000FD010DC0AA1FBB1FEE1FFF1FA217B3077F
:10255000E407F50720F0A21BB30BE40BF50B661F95
:10256000771F881F991F1A9469F760957095809559
:1025700090959B01AC01BD01CF010895052E97FBFD
:102580001EF400940E94D51257FD07D00E949C12A1
:1025900007FC03D04EF40C94D5125095409530951D
:1025A00021953F4F4F4F5F4F0895909580957095BF
:1025B00061957F4F8F4F9F4F0895EE0FFF1F881F2C
:1025C0008BBF0790F691E02D19940F931F93CF9333
:1025D000DF938230910510F482E090E0E091D9031E
:1025E000F091DA0330E020E0B0E0A0E0309799F419
:1025F0002115310509F44AC0281B390B2430310557
:10260000D8F58A819B816115710589F1FB0193835E
:102610008283FE0111C040815181028113814817DC
:102620005907E0F04817590799F4109761F012968E
:102630000C93129713961C933296CF01DF91CF9192
:102640001F910F9108950093D9031093DA03F4CFEB
:102650002115310551F04217530738F0A901DB016C
:102660009A01BD01DF01F801C1CFEF01F9CF9093CD
:10267000DA038093D903CDCFFE01E20FF31F8193DC
:1026800091932250310939832883D7CF2091D703E2
:102690003091D803232B41F42091020230910302A0
:1026A0003093D8032093D703209100023091010288
:1026B0002115310541F42DB73EB7409104025091E8
:1026C0000502241B350BE091D703F091D803E217E4
:1026D000F307A0F42E1B3F0B2817390778F0AC0145
:1026E0004E5F5F4F2417350748F04E0F5F1F509322
:1026F000D8034093D703819391939FCFF0E0E0E01C
:102700009CCFCF93DF930097E9F0FC0132971382BF
:102710001282A091D903B091DA03ED0130E020E0FC
:102720001097A1F420813181820F931F2091D7034C
:102730003091D8032817390709F061C0F093D80306
:10274000E093D703DF91CF910895EA01CE17DF0719
:10275000E8F54A815B819E0141155105B1F7E90118
:10276000FB83EA8349915991C40FD51FEC17FD07EC
:1027700061F4808191810296840F951FE90199830C
:102780008883828193819B838A83F0E0E0E01296C4
:102790008D919C9113970097B9F52D913C911197CC
:1027A000CD010296820F931F2091D7033091D80359
:1027B0002817390739F6309751F51092DA0310923D
:1027C000D903B093D803A093D703BCCFD383C283DC
:1027D00040815181840F951FC817D90761F44E5F5E
:1027E0005F4F88819981480F591F518340838A81A7
:1027F0009B81938382832115310509F0B0CFF0933B
:10280000DA03E093D9039ECFFD01DC01C0CF138230
:102810001282D7CFFB0151915523A9F0BF01DC01F2
:102820004D9145174111E1F759F4CD010190002078
:1028300049F04D9140154111C9F3FB014111EFCF12
:1028400081E090E001970895F894FFCF0000DB034A
:10285000800000000000AC0216024302190374025B
:102860005202660200000000D604AD096E616E00DF
:10287000696E66006F7666000D0A00454E5445523B
:0C28800000455849540043414C3A000008
:10E000000D9489F10D94B2F10D94B2F10D94B2F129
:10E010000D94B2F10D94B2F10D94B2F10D94B2F1F0
:10E020000D94B2F10D94B2F10D94B2F10D94B2F1E0
:10E030000D94B2F10D94B2F10D94B2F10D94B2F1D0
:10E040000D94B2F10D94B2F10D94B2F10D94B2F1C0
:10E050000D94B2F10D94B2F10D94B2F10D94B2F1B0
:10E060000D94B2F10D94B2F10D94B2F10D94B2F1A0
:10E070000D94B2F10D94B2F10D94B2F10D94B2F190
:10E080000D94B2F10D94B2F10D94B2F10D94B2F180
:10E090000D94B2F10D94B2F10D94B2F10D94B2F170
:10E0A0000D94B2F10D94B2F10D94B2F10D94B2F160
:10E0B0000D94B2F10D94B2F10D94B2F10D94B2F150
:10E0C0000D94B2F10D94B2F10D94B2F10D94B2F140
:10E0D0000D94B2F10D94B2F10D94B2F10D94B2F130
:10E0E0000D94B2F141546D656761323536300041AF
:10E0F000726475696E6F206578706C6F72657220DE
:10E1000073746B3530305632206279204D4C530099
:10E11000426F6F746C6F616465723E004875683F52
:10E1200000436F6D70696C6564206F6E203D200048
:10E130004350552054797065202020203D20005FF9
:10E140005F4156525F415243485F5F3D2000415658
:10E1500052204C696243205665723D20004743437C
:10E160002056657273696F6E203D20004350552024
:10E1700049442020202020203D20004C6F7720663D
:10E18000757365202020203D20004869676820665F
:10E190007573652020203D200045787420667573D6
:10E1A00065202020203D20004C6F636B2066757336
:10E1B000652020203D20004D617220203720323024
:10E1C000313300312E362E3800342E332E350056A2
:10E1D00023202020414444522020206F7020636F70
:10E1E00064652020202020696E73747275637469E1
:10E1F0006F6E2061646472202020496E74657272B3
:10E20000757074006E6F20766563746F7200726A49
:10E210006D702020006A6D70200057686174207056
:10E220006F72743A00506F7274206E6F7420737541
:10E2300070706F72746564004D7573742062652030
:10E2400061206C6574746572002000577269747483
:10E25000696E672045450052656164696E672045B7
:10E26000450045452065727220636E743D00504F35
:10E27000525400303D5A65726F2061646472003FF1
:10E280003D43505520737461747300403D454550C3
:10E29000524F4D207465737400423D426C696E6B41
:10E2A000204C454400453D44756D70204545505215
:10E2B0004F4D00463D44756D7020464C415348001B
:10E2C000483D48656C70004C3D4C69737420492F83
:10E2D0004F20506F72747300513D51756974005234
:10E2E0003D44756D702052414D00563D73686F7707
:10E2F00020696E7465727275707420566563746FF0
:10E30000727300593D506F727420626C696E6B00BD
:10E310002A0011241FBECFEFD1E2DEBFCDBF01E046
:10E320000CBF12E0A0E0B2E0EEE1FDEF03E00BBFB6
:10E3300002C007900D92A030B107D9F712E0A0E01B
:10E34000B2E001C01D92AE30B107E1F70F9460F367
:10E350000D948DFE01E20EBF0FEF0DBF11241FBE05
:10E360000D9460F30D9400F020E030E040ED57E0B4
:10E3700005C0FA013197F1F72F5F3F4F2817390792
:10E38000C0F308959C01260F311DC901A0E0B0E043
:10E390002F5F3F4FABBFFC018791882361F08093D3
:10E3A000C6008091C00086FFFCCF8091C0008064D1
:10E3B0008093C000EACF08958DE08093C6008091DD
:10E3C000C00086FFFCCF8091C00080648093C000B5
:10E3D0008AE08093C6008091C00086FFFCCF8091C8
:10E3E000C00080648093C00008950F94C2F10F9420
:10E3F000DCF10895FC019081992359F09093C600B7
:10E400008091C00086FFFCCF8091C0008064809323
:10E41000C0003196992379F70895282F982F929567
:10E420009F70892F805D8A3308F0895F8093C600D2
:10E430008091C00086FFFCCF8091C00080648093F3
:10E44000C000822F8F70982F905D9A3308F0995FEB
:10E450009093C6008091C00086FFFCCF8091C000E1
:10E4600080648093C00008959C01FB01853691056E
:10E470001CF46330710594F0C90164E670E00F94F8
:10E480002EFE605D7F4F6093C6008091C00086FFC6
:10E49000FCCF8091C00080648093C0002B30310598
:10E4A00014F43297B4F0C90164E670E00F942EFEC4
:10E4B0006AE070E00F942EFE605D7F4F6093C600AF
:10E4C0008091C00086FFFCCF8091C0008064809363
:10E4D000C000C9016AE070E00F942EFEC0968093E0
:10E4E000C6008091C00086FFFCCF8091C000806490
:10E4F0008093C00008951F93182F8EE692EE60E07F
:10E500000F94C2F11093C6008091C00086FFFCCF2B
:10E510008091C00080648093C0000F94DCF11F9153
:10E5200008952F923F924F925F926F927F928F92B7
:10E530009F92AF92BF92CF92DF92EF92FF920F9392
:10E540001F93DF93CF93CDB7DEB762970FB6F894E2
:10E55000DEBF0FBECDBF382E622ECA01DB015C01CB
:10E560006D01772420E2222E2E010894411C511CBB
:10E570008BC081E0A81680E0B80681E0C80680E084
:10E58000D80628F0C601AA27BB270F940DF2BB2797
:10E59000AD2D9C2D8B2D0F940DF28A2D0F940DF225
:10E5A0002092C6008091C00086FFFCCF8091C00001
:10E5B00080648093C0009DE29093C6008091C0006B
:10E5C00086FFFCCF8091C00080648093C0002092C1
:10E5D000C6008091C00086FFFCCF8091C00080649F
:10E5E0008093C00019828601750188249924A1E0D6
:10E5F0003A1651F03A1620F0B2E03B1661F409C029
:10E600000BBFF701779007C0C7010F9477FE782EF4
:10E6100002C0F7017080872D0F940DF22092C60082
:10E620008091C00086FFFCCF8091C0008064809301
:10E63000C000872D8052F401EF70F0708F3520F408
:10E64000E40DF51D708204C0E40DF51D8EE280839B
:10E650000894E11CF11C011D111D0894811C911CE2
:10E6600090E18916910409F0C2CF80E190E0A0E02A
:10E67000B0E0A80EB91ECA1EDB1E198AC2010F9493
:10E68000FAF10F94DCF16A94662009F072CF629679
:10E690000FB6F894DEBF0FBECDBFCF91DF911F91B3
:10E6A0000F91FF90EF90DF90CF90BF90AF909F9031
:10E6B0008F907F906F905F904F903F902F90089534
:10E6C0002F923F924F925F926F927F928F929F9282
:10E6D000AF92BF92CF92DF92EF92FF920F931F9370
:10E6E000DF93CF93CDB7DEB7CD53D1400FB6F894BB
:10E6F000DEBF0FBECDBF01E20EBF0FEF0DBF94B75F
:10E70000F894A89514BE80916000886180936000A1
:10E7100010926000789493FF05C0E0910002F091A0
:10E7200001021995279A2F9A8091C00082608093E8
:10E73000C00080E18093C40088E18093C1000000A4
:10E74000EE24FF24870144E0A42EB12CCC24DD2448
:10E7500024C0C5010197F1F70894E11CF11C011DCB
:10E76000111D21E2E2162EE4F20620E0020720E06D
:10E77000120718F031E0C32ED12CC801B70127ECE5
:10E780003BE140E050E00F9441FE611571058105C9
:10E79000910519F485B1805885B98091C00087FD35
:10E7A00003C0C114D104A9F2A6014F5F5F4FC25E3E
:10E7B000DE4F59834883CE51D140C25EDE4F8881FF
:10E7C0009981CE51D140019711F00D9410FEC05D9A
:10E7D000DE4F19821882C053D14060E0C15DDE4F28
:10E7E0001882CF52D14088249924C35DDE4F19820C
:10E7F0001882CD52D140C05EDE4F188219821A8233
:10E800001B82C052D140CE5CDE4F188219821A8220
:10E810001B82C253D140EE24FF2487010BBFF701B6
:10E8200007911691C45CDE4F19830883CC53D14005
:10E830000D940BFEC25EDE4F28813981CE51D1404E
:10E840002130310509F52091C600C25EDE4F1982E4
:10E850001882CE51D14022C02F5F3F4F4F4F5F4FA4
:10E86000213082E138078AE7480780E0580780F0C6
:10E87000C45CDE4FE881F981CC53D140EF5FFF4F9C
:10E8800019F0EE27FF27099420E030E040E050E047
:10E890008091C00087FFE0CF2091C600C35DDE4FAE
:10E8A00048815981CD52D1404F5F5F4FC35DDE4FEC
:10E8B00059834883CD52D140213209F063C64A3092
:10E8C000510508F05FC60894811C911C53E0851621
:10E8D000910409F059C600E010E018C081E280936D
:10E8E000C6008091C00086FFFCCF8091C00080648C
:10E8F0008093C0002F5F3F4F2931310579F70F9486
:10E90000DCF10F5F1F4F0530110519F020E030E0FA
:10E91000E5CF10920A0210920B0210920C02109294
:10E920000D02109206021092070210920802109235
:10E930000902109202021092030210920402109235
:10E9400005028FEE90EE60E00F94F5F180E191EE1C
:10E9500060E00F94C2F18091C00087FFFCCF9091DE
:10E96000C600903608F09F759032B8F09093C600BC
:10E970008091C00086FFFCCF8091C00080648093AE
:10E98000C000A0E2A093C6008091C00086FFFCCF2B
:10E990008091C00080648093C000983409F4D7C18E
:10E9A0009934B8F4923409F459C1933458F490333B
:10E9B00019F1903308F4E3C59F33A1F1903409F0C5
:10E9C000DEC5BDC0953409F470C1963409F0D7C5D1
:10E9D00098C1923509F42BC2933538F49C3409F46C
:10E9E000F5C1913509F0CBC518C2963509F445C279
:10E9F000993509F0C4C567C483E792EE62E00F94CD
:10EA0000F5F110920602109207021092080210927D
:10EA1000090210920A0210920B0210920C0210923C
:10EA20000D0213C18FE792EE62E00F94F5F18FEEC5
:10EA300090EE60E00F94F5F181E291EE60E00F94CA
:10EA4000C2F187EB91EE60E00F94F5F180E391EE77
:10EA500060E00F94C2F184EE90EE60E00F94F5F167
:10EA60008FE391EE60E00F94C2F186E090E061E008
:10EA700070E00F9434F20F94DCF18DE591EE60E0DC
:10EA80000F94C2F189EC91EE60E00F94F5F18EE401
:10EA900091EE60E00F94C2F183EC91EE60E00F9490
:10EAA000F5F18CE691EE60E00F94C2F18EE10F94E7
:10EAB0000DF288E90F940DF281E00F940DF20F949E
:10EAC000DCF18BE791EE60E00F94C2F119E0E0E039
:10EAD000F0E010935700E4918E2F0F940DF20F94F5
:10EAE000DCF18AE891EE60E00F94C2F1E3E0F0E03F
:10EAF00010935700E4918E2F0F940DF20F94DCF1D8
:10EB000089E991EE60E00F94C2F1E2E0F0E0109349
:10EB10005700E4918E2F0F940DF20F94DCF188EAE8
:10EB200091EE60E00F94C2F1E1E0F0E01093570045
:10EB30001491812F0F940DF20F94DCF107CF8BE825
:10EB400092EE62E00F94F5F18BE492EE60E00F94A8
:10EB5000F5F10F94DCF100E010E019C0C8016F2D51
:10EB60000F947FFEFF2031F489E492EE60E00F9471
:10EB7000C2F10BC0F092C6008091C00086FFFCCFAE
:10EB80008091C00080648093C0000F5F1F4FC80158
:10EB900081519F41A0E0B0E0ABBFFC01F790BAE229
:10EBA000FB1621F0E2E000301E07C1F60F94DCF105
:10EBB0000F94DCF187E592EE60E00F94F5F10F948D
:10EBC000DCF1CC24DD2400E010E01EC0C8010F946D
:10EBD00077FEF82E882331F489E492EE60E00F94FA
:10EBE000C2F10BC08093C6008091C00086FFFCCFAD
:10EBF0008091C00080648093C000FE1419F00894D6
:10EC0000C11CD11C0F5F1F4FC80181519F41A0E063
:10EC1000B0E0ABBFFC01E790FAE2EF1621F022E092
:10EC20000030120799F60F94DCF10F94DCF182E6C4
:10EC300092EE60E00F94C2F1C60161E070E00F94C3
:10EC400034F20F94DCF10F94DCF110920202109276
:10EC50000302109204021092050278CE89E992EE26
:10EC600062E00F94F5F1279A2F9A16C02F9880E052
:10EC700090E0E0EDF7E03197F1F7019684369105E9
:10EC8000C1F72F9A80E090E0E0EDF7E03197F1F7DF
:10EC9000019684369105C1F78091C00087FFE6CFC9
:10ECA0008091C00087FFFCCF64C485EA92EE62E0E9
:10ECB0000F94F5F140910202509103026091040219
:10ECC0007091050281E020E10F9491F2809102029F
:10ECD00090910302A0910402B091050280509F4FD1
:10ECE000AF4FBF4F8093020290930302A0930402A0
:10ECF000B093050280509041A040B04008F426CE69
:10ED0000A4CF83EB92EE62E00F94F5F140910602FE
:10ED100050910702609108027091090280E020E1A1
:10ED20000F9491F28091060290910702A09108023F
:10ED3000B091090280509F4FAF4FBF4F80930602A2
:10ED400090930702A0930802B0930902FFCD80ECD4
:10ED500092EE62E00F94F5F183E792EE60E00F949B
:10ED6000F5F18FE792EE60E00F94F5F18BE892EE0B
:10ED700060E00F94F5F189E992EE60E00F94F5F10F
:10ED800085EA92EE60E00F94F5F183EB92EE60E09D
:10ED90000F94F5F180EC92EE60E00F94F5F187ECC2
:10EDA00092EE60E00F94F5F188ED92EE60E00F9442
:10EDB000F5F18FED92EE60E00F94F5F18AEE92EEB0
:10EDC00060E00F94F5F183E093EEBDCD87EC92EE19
:10EDD00062E00F94F5F181E40F947BF282E40F94EA
:10EDE0007BF283E40F947BF284E40F947BF285E45E
:10EDF0000F947BF286E40F947BF287E40F947BF20E
:10EE000088E40F947BF28AE40F947BF28BE40F94F6
:10EE10007BF28CE40F947BF299CD88ED92EE62E068
:10EE20000F94F5F1772473948824992409C48FED05
:10EE300092EE62E00F94F5F140910A0250910B02BC
:10EE400060910C0270910D0282E020E10F9491F22A
:10EE500080910A0290910B02A0910C02B0910D02D8
:10EE600080509F4FAF4FBF4F80930A0290930B0289
:10EE7000A0930C02B0930D0269CD8AEE92EE62E08F
:10EE80000F94F5F184EE90EE60E00F94F5F18FECC5
:10EE900091EE60E00F94F5F1662477244301CC5D98
:10EEA000DE4F19821882C452D140D401C301B695F5
:10EEB000A79597958795CA5DDE4F88839983AA8326
:10EEC000BB83C652D140CC5DDE4FA881B981C4520C
:10EED000D1401196CC5DDE4FB983A883C452D14096
:10EEE000CD0162E070E00F9434F2B0E2B093C6005E
:10EEF0008091C00086FFFCCF8091C0008064809329
:10EF0000C000EDE2E093C6008091C00086FFFCCF18
:10EF10008091C00080648093C000F0E2F093C6004E
:10EF20008091C00086FFFCCF8091C00080648093F8
:10EF3000C000CA5DDE4FE880F9800A811B81C6529D
:10EF4000D140BB27A12F902F8F2D0F940DF2CA5DBA
:10EF5000DE4F8881C652D1400F940DF2B0E2FB2EF5
:10EF6000F092C6008091C00086FFFCCF8091C00067
:10EF700080648093C0000DE30093C6008091C000C0
:10EF800086FFFCCF8091C00080648093C00010E2B7
:10EF90001093C6008091C00086FFFCCF8091C00016
:10EFA00080648093C0008BBEF3012791C65DDE4F65
:10EFB0002883CA52D140A22EBB24CC24DD2408943D
:10EFC000611C711C811C911C8BBEF3018791282E42
:10EFD0003324442455240894611C711C811C911C09
:10EFE0008BBEF3013791C55DDE4F3883CB52D140E4
:10EFF0000894611C711C811C911C8BBEF30147910C
:10F00000C45DDE4F4883CC52D140ADEFEA2EAFEF66
:10F01000FA2EAFEF0A2FAFEF1A2F6E0C7F1C801E57
:10F02000911E142D032DF22CEE24EA0CFB1C0C1D5A
:10F030001D1D0F940DF220E22093C6008091C000A8
:10F0400086FFFCCF8091C00080648093C000C65DC5
:10F05000DE4F8881CA52D1400F940DF230E23093D6
:10F06000C6008091C00086FFFCCF8091C000806404
:10F070008093C000C45DDE4F8881CC52D1400F9494
:10F080000DF240E24093C6008091C00086FFFCCFA5
:10F090008091C00080648093C000C55DDE4F888190
:10F0A000CB52D1400F940DF250E25093C6008091A4
:10F0B000C00086FFFCCF8091C00080648093C000B8
:10F0C0008FEFE8168FEFF80680E0080780E018075A
:10F0D00031F484E092EE60E00F94C2F1DFC0D80119
:10F0E000C7018070907CA070B0708050904CA040A0
:10F0F000B040D1F52FEF3FE340E050E0E222F322B1
:10F1000004231523CA5DDE4FA880B980CA80DB8046
:10F11000C652D140AE0CBF1CC01ED11EAA0CBB1CD7
:10F12000CC1CDD1C8EE092EE60E00F94C2F1BB2798
:10F13000A12F902F8F2D0F940DF28E2D0F940DF285
:10F1400030E23093C6008091C00086FFFCCF8091F2
:10F15000C00080648093C0004EE34093C60080915D
:10F16000C00086FFFCCF87C08EE09EEFA0E0B0E03D
:10F17000E822F9220A231B239CE0E91694E9F90608
:10F1800090E0090790E0190709F088C0C45DDE4FE0
:10F19000A881CC52D140EA2EFF2400E010E0102FCD
:10F1A0000F2DFE2CEE24C55DDE4FB881CB52D14031
:10F1B000EB0EF11C011D111DD601C501817090706F
:10F1C000A070B070DC0199278827E80EF91E0A1F8D
:10F1D0001B1F20EF30E040E050E0A222B322C42207
:10F1E000D52241E1AA0CBB1CCC1CDD1C4A95D1F7F1
:10F1F000EA0CFB1C0C1D1D1D81E090E0A0E0B0E0BE
:10F20000282239224A225B2235E1220C331C441C7D
:10F21000551C3A95D1F7E20CF31C041D151D57013E
:10F220006801AA0CBB1CCC1CDD1C85E192EE60E0E1
:10F230000F94C2F1C801AA27BB270F940DF2BB2778
:10F24000A12F902F8F2D0F940DF28E2D0F940DF274
:10F2500090E29093C6008091C00086FFFCCF809121
:10F26000C00080648093C000AEE3A093C60080918C
:10F27000C00086FFFCCF8091C00080648093C000F6
:10F28000C601AA27BB270F940DF2BB27AD2D9C2DDD
:10F290008B2D0F940DF28A2D0F940DF20F94DCF14B
:10F2A000CC5DDE4FE881F981C452D140F99709F471
:10F2B0004DCBF4E0EF2EF12C012D112D6E0C7F1CA7
:10F2C000801E911EF2CD83E093EE62E00F94F5F183
:10F2D0008AE192EE60E00F94C2F18091C00087FF56
:10F2E000FCCF1091C6001F751093C6008091C0001E
:10F2F00086FFFCCF8091C00080648093C0000F9493
:10F30000DCF1812F81548A3108F036C1163409F4BA
:10F3100095C0173490F4133409F44EC0143430F40B
:10F320001134F1F0123409F01DC130C0143409F465
:10F3300059C0153409F016C16BC01A3409F4C4C0A1
:10F340001B3438F4173409F48FC0183409F00AC19B
:10F35000A1C01B3409F4D2C01C3409F003C1E8C0B9
:10F360008FEF81B90DC082B1809582B980E090E0C5
:10F37000E0EDF7E03197F1F70196883C9105C1F790
:10F380008091C00087FFEFCF12B8EFC08FEF84B934
:10F390000DC085B1809585B980E090E0E0EDF7E0A3
:10F3A0003197F1F70196883C9105C1F78091C00033
:10F3B00087FFEFCF15B8D9C08FEF87B90DC088B1DF
:10F3C000809588B980E090E0E0EDF7E03197F1F7C3
:10F3D0000196883C9105C1F78091C00087FFEFCF6F
:10F3E00018B8C3C08FEF8AB90DC08BB180958BB9A7
:10F3F00080E090E0E0EDF7E03197F1F70196883C8E
:10F400009105C1F78091C00087FFEFCF1BB8ADC059
:10F410008FEF8DB90DC08EB180958EB980E090E0F0
:10F42000E0EDF7E03197F1F70196883C9105C1F7DF
:10F430008091C00087FFEFCF1EB897C08FEF80BBD1
:10F440000DC081B3809581BB80E090E0E0EDF7E0F6
:10F450003197F1F70196883C9105C1F78091C00082
:10F4600087FFEFCF11BA81C08FEF83BB0DC084B38C
:10F47000809584BB80E090E0E0EDF7E03197F1F714
:10F480000196883C9105C1F78091C00087FFEFCFBE
:10F4900014BA6BC08FEF809301010FC080910201FD
:10F4A00080958093020180E090E0E0EDF7E03197F5
:10F4B000F1F70196883C9105C1F78091C00087FF64
:10F4C000EDCF1092020151C08FEF809304010FC065
:10F4D0008091050180958093050180E090E0E0ED4A
:10F4E000F7E03197F1F70196883C9105C1F78091DB
:10F4F000C00087FFEDCF1092050137C08FEF8093DA
:10F5000007010FC08091080180958093080180E079
:10F5100090E0E0EDF7E03197F1F70196883C910536
:10F52000C1F78091C00087FFEDCF109208011DC088
:10F530008FEF80930A010FC080910B01809580931B
:10F540000B0180E090E0E0EDF7E03197F1F70196F4
:10F55000883C9105C1F78091C00087FFEDCF1092E4
:10F560000B0103C085E292EEEEC98091C00087FFD7
:10F57000FCCF8091C600EAC988E392EEE4C98CE131
:10F5800091EEE1C988249924933011F1943028F444
:10F59000913089F09230B8F408C0953061F195301F
:10F5A000F0F0963009F048C043C02B3109F042C951
:10F5B00091E06BE13FC96227C15DDE4F2883CF52E6
:10F5C000D14092E037C9B22FA0E0622793E032C960
:10F5D000822F90E0A82BB92B622794E02BC92E3004
:10F5E00009F039C3622795E0C05DDE4F19821882A9
:10F5F000C053D1401FC9E1E0F0E0EC0FFD1FC05D3A
:10F60000DE4F08811981C053D140E00FF11F2083E4
:10F610000F5F1F4FC05DDE4F19830883C053D14079
:10F6200062270A171B0709F005C9D80196E002C92D
:10F63000261709F010C303C0973009F0FBC87724E0
:10F640009981933109F412C19431C8F4963009F4C8
:10F65000D8C0973050F4923009F406C1933009F4C1
:10F660006DC0913009F059C253C0913109F477C08F
:10F67000923108F0BBC0903109F04FC2F5C098310B
:10F6800009F487C0993150F4953109F4EFC09531F0
:10F6900008F4C6C1963109F040C2C2C19A3109F4DA
:10F6A0006CC09A3108F491C09B3109F45BC09D3164
:10F6B00009F033C29D81903359F48F81882311F46E
:10F6C0009EE11CC0813011F091E018C098E916C08D
:10F6D000892F807591F0903539F4E0E0F0E089E011
:10F6E0008093570094910AC0983539F4E3E0F0E034
:10F6F00089E080935700949101C090E01A821B82A8
:10F700008D818C831D829E831F8227E030E009C299
:10F710001A8288E08B8381E48C8386E58D8382E581
:10F720008E8389E48F8383E5888780E589878FE5E9
:10F730008A8782E38B872BE030E0F3C18A818139AD
:10F7400041F0823941F0803911F48FE005C080E04A
:10F7500003C082E001C08AE01A828B8344C0772410
:10F76000739482C08D81882311F48EE12CC0813086
:10F7700011F081E028C088E926C01A82E1E0F0E0BB
:10F7800089E08093570084918B831C8224E030E0D1
:10F79000C8C18B81803589F48C81883039F4E2E0EE
:10F7A000F0E089E08093570084910DC0E0E0F0E044
:10F7B00089E080935700849106C0E3E0F0E089E09F
:10F7C0008093570084911A82DFCF8D81836C99E0FA
:10F7D000E1E0F0E0082E90935700E89507B600FCB2
:10F7E000FDCF1A821B8223E030E09BC180EC8A832C
:10F7F000CE5CDE4F188219821A821B82C253D1401E
:10F800008EC18A8190E0A0E0B0E0582F44273327D2
:10F8100022278B8190E0A0E0B0E0DC0199278827C7
:10F82000282B392B4A2B5B2B8D8190E0A0E0B0E098
:10F83000282B392B4A2B5B2B8C8190E0A0E0B0E089
:10F84000BA2FA92F982F8827282B392B4A2B5B2BCF
:10F85000220F331F441F551FC05EDE4F288339839C
:10F860004A835B83C052D1401A8259C13A81C95C34
:10F87000DE4F3883C753D140CA5CDE4F1882C6536F
:10F88000D1408B81C82EDD24CA5CDE4F488159816E
:10F89000C653D140C42AD52A933109F082C0CE5C28
:10F8A000DE4F88819981AA81BB81C253D1408050AB
:10F8B000904CA340B04030F583E0CE5CDE4FE88052
:10F8C000F9800A811B81C253D140F70100935B008C
:10F8D00080935700E89507B600FCFDCFCE5CDE4F65
:10F8E000088119812A813B81C253D14000501F4FAA
:10F8F0002F4F3F4FCE5CDE4F088319832A833B8313
:10F90000C253D140C05EDE4F488159816A817B81FC
:10F91000C052D140DE011B9631E08C9111962C91A2
:10F9200011971296C75CDE4F2883C953D140C85C3B
:10F93000DE4F1882C853D14090E0C85CDE4FE881AA
:10F94000F981C853D1408E2B9F2B0C01FA01609393
:10F950005B0030935700E89511244E5F5F4F6F4F67
:10F960007F4F0EEFE02E0FEFF02ECE0CDF1CC114F8
:10F97000D10499F685E0C05EDE4F088119812A81A5
:10F980003B81C052D140F80120935B008093570027
:10F99000E89507B600FCFDCF81E180935700E8951C
:10F9A00035C0C05EDE4F88819981AA81BB81C0527B
:10F9B000D140B695A795979587957C018601ABE0D8
:10F9C000AA2EB12CAC0EBD1E0BC0D5016D915D01F0
:10F9D000C7010F947FFE0894E11CF11C01501040F8
:10F9E0000115110591F7A60160E070E0440F551F65
:10F9F000661F771FC05EDE4FE880F9800A811B8199
:10FA0000C052D1404E0D5F1D601F711F1A82C05E33
:10FA1000DE4F488359836A837B83C052D1407FC0C5
:10FA2000FA80C55CDE4FF882CB53D140C65CDE4F16
:10FA30001882CA53D1408B81C82EDD24C65CDE4FAC
:10FA400008811981CA53D140C02AD12A1A828981DA
:10FA5000BE016D5F7F4F843121F59601C05EDE4FA0
:10FA6000E880F9800A811B81C052D1400BBFF701A9
:10FA700087919691DB018C9311969C936E5F7F4FDB
:10FA8000D801C7010296A11DB11DC05EDE4F88835B
:10FA90009983AA83BB83C052D14022503040F1F6F3
:10FAA00036C0C05EDE4F288139814A815B81C052F9
:10FAB000D1400894C108D108760100E010E0089414
:10FAC000C11CD11C0894E11CF11C011D111DE20E8A
:10FAD000F31E041F151F21BDBB27A52F942F832FB5
:10FAE00082BD2F5F3F4F4F4F5F4FF89A80B5DB01CC
:10FAF0008D93BD012E153F054007510761F7C05E8C
:10FB0000DE4F288339834A835B83C052D1409601FC
:10FB10002D5F3F4FFB01108204C080EC8A8322E0FE
:10FB200030E08BE18093C6008091C00086FFFCCF5F
:10FB30008091C00080648093C000C15DDE4FF88179
:10FB4000CF52D140F093C6008091C00086FFFCCF19
:10FB50008091C00080648093C000432F3093C60022
:10FB60008091C00086FFFCCF8091C00080648093AC
:10FB7000C000922F2093C6008091C00086FFFCCF6A
:10FB80008091C00080648093C0008EE08093C600A6
:10FB90008091C00086FFFCCF8091C000806480937C
:10FBA000C00065E1C15DDE4FE880CF52D1406E25D7
:10FBB00069276427FE01319610C090819093C6009A
:10FBC0008091C00086FFFCCF31968091C000806498
:10FBD0008093C0006927215030402115310569F715
:10FBE0006093C6008091C00086FFFCCF8091C0006A
:10FBF00080648093C00085B1805885B9772081F4F6
:10FC0000C15DDE4F0881CF52D1400F5FC15DDE4F35
:10FC10000883CF52D14090E0A0E0B0E00D941AF4F8
:10FC200027982F9880E090E020ED37E0F901319798
:10FC3000F1F7019684369105C9F700008091C00064
:10FC40008D7F8093C00081E180935700E895EE2777
:10FC5000FF270994FFCF90E00D941AF497FB092E2B
:10FC600007260AD077FD04D02ED006D000201AF443
:10FC7000709561957F4F0895F6F7909581959F4F08
:10FC80000895A1E21A2EAA1BBB1BFD010DC0AA1FDD
:10FC9000BB1FEE1FFF1FA217B307E407F50720F0F5
:10FCA000A21BB30BE40BF50B661F771F881F991F70
:10FCB0001A9469F760957095809590959B01AC01B9
:10FCC000BD01CF010895AA1BBB1B51E107C0AA1FAC
:10FCD000BB1FA617B70710F0A61BB70B881F991FED
:10FCE0005A95A9F780959095BC01CD010895F99991
:10FCF000FECF92BD81BDF89A992780B50895262F31
:10FD0000F999FECF1FBA92BD81BD20BD0FB6F89400
:0EFD1000FA9AF99A0FBE01960895F894FFCF63
:00000001FF
